:020000040800F2
:1000000000200020D909000891090008AD09000866
:1000100000000000000000000000000000000000E0
:10002000000000000000000000000000C9090008F6
:100030000000000000000000CB090008CD09000806
:10004000290A0008290A0008290A0008290A0008C4
:10005000290A0008290A0008290A0008290A0008B4
:1000600000000000290A0008290A0008290A0008DF
:10007000290A0008290A0008290A0008290A000894
:10008000290A0008290A0008290A0008290A000884
:1000900000000000290A0008290A0008290A0008AF
:1000A00021040008290A0008290A0008290A000872
:0C00B000290A0008290A000800000000CE
:1000C00010B5064C2378002B07D1054B002B02D02E
:1000D000044800E000BF0123237010BD4C00002045
:1000E000000000004C140008044B10B5002B03D096
:1000F0000349044800E000BF10BDC04600000000F6
:10010000500000204C140008002243088B4274D396
:1001100003098B425FD3030A8B4244D3030B8B4208
:1001200028D3030C8B420DD3FF22090212BA030C11
:100130008B4202D31212090265D0030B8B4219D3F2
:1001400000E0090AC30B8B4201D3CB03C01A524112
:10015000830B8B4201D38B03C01A5241430B8B425A
:1001600001D34B03C01A5241030B8B4201D30B0343
:10017000C01A5241C30A8B4201D3CB02C01A52416A
:10018000830A8B4201D38B02C01A5241430A8B422D
:1001900001D34B02C01A5241030A8B4201D30B0216
:1001A000C01A5241CDD2C3098B4201D3CB01C01A30
:1001B000524183098B4201D38B01C01A524143093A
:1001C0008B4201D34B01C01A524103098B4201D328
:1001D0000B01C01A5241C3088B4201D3CB00C01A95
:1001E000524183088B4201D38B00C01A524143080D
:1001F0008B4201D34B00C01A5241411A00D2014632
:10020000524110467047FFE701B5002000F006F8A4
:1002100002BDC0460029F7D076E770477047C04658
:1002200010B50B480B4B036000230371013343717E
:1002300001225242026121324261603282610362D4
:1002400000F006FD002800D110BD00F0B3FAFBE776
:10025000680000200030024082B0084B02689A42D9
:1002600001D002B07047064A916B802040010143E3
:100270009163936B03400193019BF2E700300240CE
:1002800000100240054B02689A4200D07047044AB1
:10029000936B04490B409363F8E7C046003002407B
:1002A00000100240FFEFFFFF00B589B010220021CF
:1002B00004A801F0C3F80D4B5A6B01210A435A639D
:1002C0005A6B0A400192019A586B022210435863FC
:1002D0005B6B1A400292029B20230393059103A9B2
:1002E000034800F06DFE09B000BDC046001002409A
:1002F00000040050F0B5CE46474680B591B01C22B0
:10030000002109A801F09AF800240594314D6B6B87
:10031000012633436B636B6B33400293029B802354
:100320001B01039302239946049306960796043310
:1003300098460893A027FF0503A9380000F034FF72
:1003400080235B0103934B4604930594069607961E
:100350004346089303A9380000F026FFEA6B80218A
:10036000C9030A43EA63EB6B0B400193019B1A4BF1
:10037000C62189005A58FF2082435A5080225204D5
:100380001A600994154B0A930B940C94A8230D93AF
:100390000E940F94124C09A9200000F099FF626896
:1003A00080239B0413436360E3680E4A1340E360B9
:1003B000E3680D4A1340E36023680C4A134023604E
:1003C00023680B4A1340236011B0C0BCB946B04645
:1003D000F0BDC0460010024000E100E0BC7D70109E
:1003E0000058004001F8FFFFFF7FFFFFFFFFF7FF0E
:1003F000FFFFFDFF10B5064B1C68064A064907487B
:1004000000F082FCC043001B43425841C0B210BD03
:10041000FCF70008FCDF000000180008680000205E
:1004200010B5344B9B691A073ED5324AD169082072
:100430000143D1619269D2032ED52E490A6806384C
:1004400002430A602C4A032111702A490A682020BD
:1004500002430A609B0648D5264AD36920210B43F4
:10046000D361254B1B78DAB2032B30D0042A3FD15D
:10047000224B00221A80204B01321A701D4B1A6841
:100480008A431A605968802212020A435A601A6825
:1004900008210A431A602BE01648026804210A4327
:1004A0000260154A1170D0E79A07D3D45A07D1D504
:1004B000104A516A1148028894B2013292B2028005
:1004C000CAB20F490A550C4A04211170C2E7094B00
:1004D000D969982252000A43DA611A6808210A434E
:1004E0001A60054B00221A7002E0064B01221A80A6
:1004F00010BDC04600580040A20800208C0000201B
:1005000098000020A0080020F8B51C4C200000F046
:10051000B3FE63681A4A1340636023680122934361
:1005200023602368073293432360164E002434600F
:10053000154D2A68032313402B60144B01225242AD
:1005400080215A500131FF315A50114B1C665C66B4
:100550009C66DC66AB6980277F003B43AB6100F0A3
:10056000F3FEAB691F43AF610A4800F0B3FB00F034
:100570005DFA34607460B460F8BDC0460058004055
:10058000FFFFFFFD10E000E00000014000E100E09F
:10059000001802406800002010B5FFF72BFF00286C
:1005A00007D00D4B1B680D4A1340802292059342E1
:1005B00000D010BDFFF7A8FF074A094B9A60094B0E
:1005C0001968094B19601968084B1960126882F3A1
:1005D00008881B689847ECE7001800080000FE2F09
:1005E00000ED00E0041800089000002094000020B6
:1005F000F0B5DE4657464E464546E0B589B0002385
:1006000007934D4B5A78D2B29878C0B2D978C9B214
:100610001E79F6B25D799B792D025B199BB2002B96
:100620007AD0120604041443344309020C43434BAA
:100630001B695B0306D596239B00414AE2503F4B62
:10064000404A1A6100F0C8FB0028FBD10223039343
:10065000F8231B06E318DB0A0593012306933220D7
:1006600000F0CEFB07A903A800F05CFC0028F6D13F
:1006700080231B01E218944249D221000831002353
:100680008A425B415B42FF221340013399460826B0
:1006900008235B429A46A244274B984653469F192B
:1006A00043469B5D9B46731C4246D05CB31CD55CA5
:1006B000F31CD35C9C46331DD45C731DD15CB31D0D
:1006C000D25C0192F31D4246D35C00022D04054327
:1006D0005A46154362461006054309020C43019A27
:1006E000120414431B061C43322000F089FB2A002D
:1006F00023003900012000F0BDFB0028F4D10123C4
:100700005B429C46E14408364B46002BC6D100F0C4
:10071000E7FB322000F074FB0023074800210A4A5F
:10072000C15401339342FBD109B0F0BCBB46B24681
:10073000A946A046F0BDC046980000200020024017
:1007400023300000FBC300000808000070B5154C02
:10075000154E80256D040EE0FFF74AFF3560134B00
:1007600019680820014319601968012211431960B2
:100770001A6802431A602378012BFCD17F33F550AD
:10078000BFF34F8FBFF36F8F064B00221A70084BD9
:100790001B78DAB2062BDFD0772ADFD1FFF7FCFE19
:1007A000DCE7C046A208002000E100E0005800405D
:1007B0009800002072B6BFF34F8F034B034ADA60F4
:1007C000BFF34F8FC046FDE700ED00E00400FA05DF
:1007D00010B5284A136807218B4305390B43136072
:1007E000110007220B681340022BFBD1224A11682B
:1007F000FE330B43136011008022D2000B681342BA
:10080000FCD01D4BDA681D4911401D4A0A43DA60CD
:100810001968802252040A431A60D968802252055E
:100820000A43DA601900802292040B681342FCD05C
:10083000114A936813490B409360936807218B43D7
:1008400005390B439360110038228B681340102B3D
:10085000FBD1094A93680C490B4093600B4800F0A8
:10086000C3FD032000F0F6F8002800D110BDFFF70B
:10087000A1FFC04600200240001002408C80FF1FF4
:1008800002080020FFF0FFFFFF8FFFFF0090D00362
:10089000F0B5C64600B586B000F004F9FFF798FF42
:1008A000FFF702FDFFF7BCFC1422002101A800F0B5
:1008B000C5FD294B5A6B012632435A635B6B3340AB
:1008C0000093009B80273F01A024E405002239000B
:1008D000200000F063FC80235B0198460022190091
:1008E000200000F05BFC019700250295039604951B
:1008F00001A9200000F064FB434601930295039692
:10090000049501A9200000F05BFB9620400000F058
:1009100053FD23693B4202D12369DB040ED5FFF767
:100920003BFEFFF7E7FC0D4B1A6801210A431A60F2
:100930001A6807310A431A60FFF708FFFFF7DAFC6D
:10094000064B196832000A431A60196808220A43E4
:100950001A60FFF7FBFEC04600100240005800403E
:1009600082B00A4B196C012211431964196C0A40B8
:100970000092009ADA6B802149050A43DA63DB6B47
:100980000B400193019B02B07047C046001002402B
:10099000BFF34F8F034B044ADA60BFF34F8FC0465B
:1009A000FDE7C04600ED00E00400FA05BFF34F8FFD
:1009B000034B044ADA60BFF34F8FC046FDE7C046E1
:1009C00000ED00E00400FA057047704710B500F034
:1009D0007DF810BD704700000D488546FFF7FAFF0F
:1009E0000C480D490D4A002302E0D458C45004338A
:1009F000C4188C42F9D30A4A0A4C002301E0136060
:100A00000432A242FBD300F0F5FCFFF741FFFEE702
:100A100000200020000000204C000020801400086E
:100A20004C000020C4080020FEE7704710B5084BBA
:100A300001214942D9620022DA6219631A6399627C
:100A40009A6259625A62FFF7F0FF002010BDC0465B
:100A50000010024010B504000F4B19780120002946
:100A600000D110BDFA208000FFF74EFB01000B4BB8
:100A70001868FFF749FB00F06DF803000120002B18
:100A8000EFD1032CEDD800222100404200F030F8D5
:100A9000034B1C600020E4E704000020000000205D
:100AA0000800002010B5084A116880235B000B4342
:100AB00013600320FFF7CEFF041E02D001242000A4
:100AC00010BDFFF74DFFFAE700200240034A11680E
:100AD000034B1B785B1813607047C046A4080020C6
:100AE00004000020014B18687047C046A40800208D
:100AF00070B5002814DB8408A400144B9C466444A1
:100B0000C026B600A55903221040C000FF231A00DA
:100B10008240954389010B4083402B43A35170BD14
:100B20000F230340083B9B089B00094A94466344FB
:100B3000DC6903221040C000FC3215008540AC4344
:100B400089010A4082402243DA61E8E700E100E0DF
:100B500000ED00E0013880235B0498420FD2094A7F
:100B600050600948036A1B021B0AC02109060B4397
:100B70000362002393600733136000207047012055
:100B8000FCE7C04610E000E000ED00E0F0B597089B
:100B9000032A27D90C00002623781B0665782D042C
:100BA0002B43E5782B43A5782D022B4305682B605A
:100BB00001360434BE42EFD30123032A00D93B009F
:100BC000032425001540144212D0012D0CD0022D13
:100BD00011D19B00CA5C1202CB185B7813430268E8
:100BE000138005E00023EBE79B005B5C0268137059
:100BF00003681868F0BD032DFAD19B00CC5C240279
:100C0000CB185A78224301680A809B7802681370D7
:100C1000EEE7F0B55708012A18D90C000025238803
:100C20001B04668833430668336001350434BD42D3
:100C3000F5D30123012A00D93B00D20703D59B003D
:100C40005B5A0268138003681868F0BD0023F4E75C
:100C500010B5041E39D0437F002B25D002236377C3
:100C60002379002B24D12368194A5A61226893689A
:100C700018218B4393606379002B22D123680122D2
:100C800052421A612268936860218B4361690B4369
:100C900093602268936880218B43A1690B43936022
:100CA00001236377002010BD0377FFF7D5FAD5E75E
:100CB000E268A168200000F050F80028DBD0012095
:100CC000F1E7236822691A61DCE70120EBE7C046FF
:100CD000B71DC10470B5041E14D0437FD8B2022BD7
:100CE0000FD0022363772268936801210B4393603E
:100CF000236800255D602000FFF7C4FA657725773B
:100D0000002070BD0120FCE770B50400022343778A
:100D10000068836801252B438360236A022B18D067
:100D2000032B05D0012B10D000200123637770BD69
:100D3000002A07D00B0092008918226801CB1060AE
:100D40008B42FAD123681868EFE72000FFF71EFFF7
:100D5000EBE72000FFF75DFFE7E7F0B507000120B4
:100D6000CB072BD51E231F26012534001C4008006D
:100D7000E040054209D1013BF7D2102A27D0182ABA
:100D800027D0002A11D0012018E0102A17D008D847
:100D9000002A0AD00120082A10D10F2B05D90120E2
:100DA0000CE0182A0FD1062B0FD83B68596139681F
:100DB0008B68182083431A438A600020F0BD072BFC
:100DC000F3D90120FAE70120F8E70120F6E7012036
:100DD000F4E70120F2E70000064B5B690020002BDE
:100DE00000DB7047034B044A9A60044A9A605869D2
:100DF000C00FF6E70020024023016745AB89EFCD25
:100E0000F8B50400FFF76EFE0700164E80256D0250
:100E100033692B4208D0631CFAD0FFF763FEC01B76
:100E2000A042F5D303201CE00E490A690E4B1500C1
:100E30001D400E4808611A420ED10E008025ED02B9
:100E400033692B420CD0631CFAD0FFF74BFEC01B5A
:100E5000A042F5D3032004E0054B5D60012000E0D3
:100E60000020F8BD00200240FAC30000FBC30000D0
:100E7000A8080020F8B506000F0014001D00164B4E
:100E80001B78012B26D0144B01221A7000225A60C5
:100E9000FA208000FFF7B4FF00280DD1012E0FD0FB
:100EA0002100380000F0E0FAFA208000FFF7A8FFE8
:100EB0000A4A5369B3435361074B00221A70F8BDC5
:100EC000064A536901210B4353613C60BFF36F8FA6
:100ED0007D60E9E70220F2E7A80800200020024038
:100EE00010B5FA208000FFF78BFF054B596980226F
:100EF00012060A435A615869C043C00F10BDC0466C
:100F000000200240044A5369C900044803401943C1
:100F1000034B1943516170470020024007E0FFFF77
:100F200002000100F8B505000E00224B1B78012BD2
:100F30003ED0204B01221A7000225A60FA20800015
:100F4000FFF75EFF00282FD104236B602B68042B72
:100F50001AD001235B423360AC68EB68E3189C4213
:100F60001DD2FA27BF0021006868FFF7CBFF3800C9
:100F7000FFF746FF002811D10134AB68EA689446B8
:100F80006344A342EFD80AE00B4A51690B4B0B4371
:100F90005361FA308000FFF733FF05E03460064A02
:100FA000536902218B435361024B00221A70F8BD32
:100FB0000220FCE7A80800200020024004000100F5
:100FC000F0B5DE4657464E464546E0B585B00E685C
:100FD000002E00D1D3E0002200230124A4460234D5
:100FE000C025AD02A9460F25AA46684D45196F4296
:100FF0007D416D4203954FE0866827009740BE43D0
:10100000B046CE68964047463E4386604668AE434B
:101010004D682D0967463D409D403543456047E09A
:1010200000265F46BE4047463E432E66584D2D681B
:10103000019EF64302964F68FE0200D593E0029EA1
:101040003540534F3D607D684F68BE0200D58DE04E
:10105000029E35404E4F7D6084257D594F68BE030A
:1010600000D586E0029E3540494FB8468427BB46EE
:1010700047465E46BD5180257D594E68F6037BD4B8
:10108000029E35402F00424E8025775101330E6875
:1010900002323500DD4072D065469D4037002F405A
:1010A00001972E42F2D04E682640013E012EA3D970
:1010B0004D682540032D23D0C56826009640B543D2
:1010C0002E008D6895403543C5604D682540022D42
:1010D00016D1DD08AD00451902952E6AB0460726E7
:1010E0001E40B6005746B740BB4647465D46AF4335
:1010F000B8460F69B7403E0045462E43029D2E621A
:10110000056826009640B5432E004D682540954061
:10111000354305604D684E463542B7D09D08AD0059
:101120001B4EB04645442E6E029627001F40FF001E
:10113000BB4657465E46B740029EBE43B046A02619
:10114000F605B04200D16BE7124EB04207D0124E06
:10115000B04206D0039E6746BE43053661E70126CE
:101160005FE702265DE7019E35436AE7019E35434E
:1011700070E7019E354377E7019F2F4383E705B072
:10118000F0BCBB46B246A946A046F0BD00F4FFAF96
:10119000001802400004005000080050002A01D04E
:1011A000816170478162FCE7F0B5D6464F464646FE
:1011B000C0B50B68002B58D000220124A14620E0C6
:1011C000C3689846230063435F00BC469C44654661
:1011D000EF430D695D43AA4646466546AE4335007A
:1011E00056462E43C6604D68022D25D004684D68D2
:1011F0006B4327403B43036001320B681C00D44023
:1012000033D04D4695401C002C402B42F4D04B6807
:10121000013B012BD4D88368250065436F007F19FB
:10122000BB438E6875432B4383604368A343CD68FB
:1012300065432B434360C3E7FF2C0AD8046A1D00B3
:101240005D432E01761BB4434E6975432C43046203
:10125000CCE7456A240A644364432601361BB54340
:101260004E6974432C434462C0E70020E0BCBA4698
:10127000B146A846F0BD00000300104A904204D0D9
:101280000F4A012093420CD070470E4BD96A80223E
:1012900092030A43DA62DA6A0B490A40DA620020F2
:1012A000F2E7084BD96A8022D2030A43DA62DA6A8B
:1012B00006490A40DA620020E6E7C04600540040D2
:1012C0000058004000100240FFFFDFFFFFFFBFFF9C
:1012D00030B502680124A24302600268CB681B0299
:1012E0008D682B43154D2A40134303604B680361FF
:1012F0000368234303608368114A13408360826854
:101300000B698C692343D20AD202134383600B69B1
:10131000002B04D0826880231B0213438360036880
:10132000084A13400A68134303604368044A1340A1
:101330004A6913434360002030BDC046FFE0FFFF11
:10134000FF7FFFFFFFFFCFFF194A116880235B007B
:101350000B43136011008022D2000B681342FCD0B3
:10136000134B5A68134911408022D2010A435A6034
:1013700000229A600132FF321A6019008022920224
:101380000B681342FCD10A4B802252001A601900EC
:10139000802292040B681342FCD1054B802252013B
:1013A000DA6000229A61013A1A6200207047C04652
:1013B00000100240FF80FFFF82B00A4B1B680193C0
:1013C000019B431C5A1E9341C018064980225202B9
:1013D000002804D00B681342FAD00138F8E702B0B5
:1013E0007047C04610E000E0014B18607047C046EF
:1013F0000000002070B500260C4D0D4C641BA4109D
:10140000A64209D1002600F021F80A4D0A4C641BBF
:10141000A410A64205D170BDB300EB589847013621
:10142000EEE7B300EB5898470136F2E7781400086E
:1014300078140008781400087C140008030082184F
:10144000934200D1704719700133F9E7F8B5C046EF
:10145000F8BC08BC9E467047F8B5C046F8BC08BC4E
:101460009E4670470000000001B40248844601BC5B
:08147000604700BF0D000020E1
:04147800E90000087F
:04147C00C1000008A3
:101480000024F400010000000400000010B50A0070
:101490000D494C698023DB0223434B61EFF3108C31
:1014A00072B6511CFF311300821A1868D0500433F1
:1014B0008B42FAD10449802252020B691342FCD1BB
:0C14C0008CF3108810BDC04600200240D4
:04000005080009D90D
:00000001FF
