:020000040800F2
:1018000000200020153C0008213500082335000881
:1018100000000000000000000000000000000000C8
:101820000000000000000000000000002535000856
:1018300000000000000000002735000829350008DE
:10184000653C0008653C0008653C0008653C0008F4
:10185000653C000831350008AD350008FD3500084D
:101860000000000011370008653C0008653C0008D6
:10187000653C0008653C0008653C0008653C0008C4
:10188000653C0008653C0008653C0008653C0008B4
:1018900000000000653C0008653C0008653C00084D
:1018A0008D290008653C0008653C0008653C00087F
:0C18B000653C0008653C000800000000DA
:1018C00010B5064C2378002B07D1054B002B02D016
:1018D000044800E000BF0123237010BDB4000020C5
:1018E000000000000C560008044B10B5002B03D07C
:1018F0000349044800E000BF10BDC04600000000DE
:10190000B80000200C560008002243088B4274D314
:1019100003098B425FD3030A8B4244D3030B8B42F0
:1019200028D3030C8B420DD3FF22090212BA030CF9
:101930008B4202D31212090265D0030B8B4219D3DA
:1019400000E0090AC30B8B4201D3CB03C01A5241FA
:10195000830B8B4201D38B03C01A5241430B8B4242
:1019600001D34B03C01A5241030B8B4201D30B032B
:10197000C01A5241C30A8B4201D3CB02C01A524152
:10198000830A8B4201D38B02C01A5241430A8B4215
:1019900001D34B02C01A5241030A8B4201D30B02FE
:1019A000C01A5241CDD2C3098B4201D3CB01C01A18
:1019B000524183098B4201D38B01C01A5241430922
:1019C0008B4201D34B01C01A524103098B4201D310
:1019D0000B01C01A5241C3088B4201D3CB00C01A7D
:1019E000524183088B4201D38B00C01A52414308F5
:1019F0008B4201D34B00C01A5241411A00D201461A
:101A0000524110467047FFE701B5002000F006F88C
:101A100002BDC0460029F7D076E770477047C04640
:101A20009E2110B5C905041C00F090FC002803D1CC
:101A3000201C00F0F9FB10BD9E21201CC90500F000
:101A400045FA00F0F1FB80231B069C466044F2E758
:101A5000F0B54F464646D6464502C0B547000C1C79
:101A60006D0A3F0EC60F002F00D170E0FF2F00D18E
:101A700075E0EB008025ED041D43002399469A464E
:101A80007F3F6002430A984663001B0EE40F002B61
:101A90004ED0FF2B46D04246D0008022D2040243D3
:101AA000904600227F3B3100FF1A4B466140C9B28D
:101AB00013430F2B00D9B5E06E489B00C3589F46D7
:101AC000002398462600454692465346022B00D1F5
:101AD00089E0032B00D19EE0012B18D03B007F331F
:101AE000002B69DD6A0704D00F222A40042A00D0A7
:101AF00004352A0103D5604B1D403B008033FE2B8B
:101B000000DD70E0AD016D0AD8B202E00E000020E9
:101B10000025C0052843F6073043E0BCBA46B1466D
:101B2000A846F0BD4346002B3FD10222FF3F03E011
:101B30004346002B2DD1012231004B466140C9B2F2
:101B400013430F2B34D84D489B00C3589F46002D9C
:101B500013D104239946033B00279A4691E7002DB1
:101B600005D108239946063BFF279A4689E70C23AF
:101B70009946093BFF279A4683E7280000F0F0FBCF
:101B80007627431F9D4000237F4299469A463F1A7D
:101B900077E7404600F0E4FB4246431F9A40762335
:101BA0005B4290461B1A00227DE7FF2303227AE75F
:101BB0000E00FF200025ACE70120C01A1B28A6DC80
:101BC0009E372A00BD40C2406B1E9D4115436B07E6
:101BD00004D00F232B40042B00D004356B0144D5D7
:101BE0000120002595E7FF20002592E780250026AB
:101BF000FF20ED038DE7002398468020C0030542B7
:101C000009D04346034206D1454605436D022600EE
:101C1000FF206D0A7DE78020C00305436D02FF2091
:101C20006D0A76E742466B015001834219D21B22AE
:101C30000025013F01261C006D005B00002C01DB2C
:101C4000984201D81B1A3543013A002AF3D15A1E93
:101C500093411D433B007F330E00002B00DD41E725
:101C6000AAE71A2201251B1AE4E7AD0100206D0A3C
:101C70004FE7C04638560008FFFFFFF778560008C8
:101C8000F0B54F464646D64644024500C0B5640A04
:101C90000F1C2D0EC60F002D00D18DE0FF2D00D1A1
:101CA00092E00023802099469A46E400C004044351
:101CB0007F3D7802430A98467B001B0EFF0F002BE6
:101CC00000D170E0FF2B00D186E04246D000802298
:101CD0007F3BED180023D204024390469C4631001E
:101CE0004B467940681C0F2B1CD8764A9B00D35872
:101CF0009F4639004446E2465346022B0FD0032B41
:101D000000D1D7E0012B37D100200024C0052043AB
:101D1000C9070843E0BCBA46B146A846F0BDFF205B
:101D20000024F3E7260C2404220C44462404240C4B
:101D3000434627001B0C574374435A435E43121912
:101D40003B0C9B189C4203D9802252029446664465
:101D50003F041A043F0CD2199401671EBC411B0CAE
:101D6000920E9B1914439B011C431B0100D49BE062
:101D7000012362081C40144302007F32002A64DD04
:101D8000630704D00F232340042B00D00434230125
:101D900003D502004C4B80321C40FE2ABFDCA4015C
:101DA000640AD0B2B2E74346002B3DD14A46013324
:101DB0001A4391469C4692E7002C29D10423994668
:101DC000033B00259A4674E7002C1BD10823994653
:101DD000063BFF259A466CE74346FF35002B0BD1A7
:101DE00002234A461A4391469C4678E753463100FF
:101DF000022B00D083E792E703234A461A43914619
:101E00009C466CE70C239946093BFF259A4650E710
:101E1000200000F0A5FA7625431F9C4000236D4268
:101E200099469A462D1A44E7404600F099FA4246F0
:101E3000431F9A4000232D1A90469C46763D4EE75C
:101E400080240021FF20E40360E701239B1A1B2B61
:101E500000DD59E722009E30DA4084401300621E04
:101E600094411C43630704D00F232340042B00D06C
:101E7000043463011AD50120002447E78020C00301
:101E8000044209D04346034206D144460443640257
:101E90003900FF20640A39E78020C003044364024C
:101EA0003100FF20640A31E7280065E7A401002023
:101EB000640A2BE78020C00304436402FF20640A05
:101EC00024E7C046B8560008FFFFFFF7F8B5CE4636
:101ED000474643025B0A4E02DA009446720A914674
:101EE00045004A0080B52D0E1F00C40F120EC90F09
:101EF000B609FF2A5BD0012041408C4239D0A81A94
:101F000000285ADD002A6AD0FF2D00D1D9E08022B6
:101F1000D20416431B2800DCE9E001206346181AAE
:101F2000430100D4B4E080018709380000F018FABA
:101F300005388740854200DCCCE02D1AB548384092
:101F4000430704D00F230340042B00D00430430187
:101F500000D4A0E06A1CFE2D00D18DE08001470A6C
:101F6000D2B2D0053843E4072043C0BCB946B046DE
:101F7000F8BDA81A8046002845DD002A70D0FF2D44
:101F800000D19EE08023DB041E4343461B2B00DC74
:101F9000D2E00120604443017AD50135FF2D6BD09A
:101FA00001239D4A0340400810401843C8E7002E13
:101FB00020D08C4223D02800FF38002839D0571B6E
:101FC000002D00D09DE06346002B00D1DBE07B1E9E
:101FD000012F00D10DE1FF2F71D01F0098E0002EDE
:101FE00000D1A7E0421E012800D1E6E0FF2868D01A
:101FF00010008FE701204140A14200D07FE7FF2081
:1020000040428046A8444046002838D0511B002D4D
:1020100000D1AEE0FF2A00D1DFE080236046DB0480
:10202000184384461B2900DCD9E0012015008019E3
:10203000B1E7FE206A1C104271D1002D00D0A6E04D
:102040006346002B00D1D9E00022002E00D188E7A2
:10205000981B430100D4E1E063460C00F01A6FE7DF
:10206000002E00D1B7E00200013A012800D19CE027
:10207000FF2826D0904688E7FF22002771E7FE2040
:102080006A1C104264D0FF2AF6D01500664470081E
:10209000430700D056E7C308FF2D12D05B025F0A4A
:1020A000EAB25EE76246002A00D196E0002E08D030
:1020B0008022D203134204D04846104201D10C00C2
:1020C0004B46002BD8D08027FF031F437F02FF22FF
:1020D0007F0A46E720233A00451B38000135EA40D5
:1020E0005D1BA840431E98410025104328E720238C
:1020F0001B1A32009E40C2403000431E98411043DC
:102100000CE7FF2ADBD080236046DB0418438446BB
:102110001B2F56DD01200C001500301A00E7634626
:102120009F1B7B013DD4002F00D0FEE6002400223F
:10213000002716E70500AFE7320043464146DA4084
:1021400020235B1A9E403000431E9841104321E734
:10215000002DA7D16346002B59D00022002E00D1BC
:10216000FFE630006044430192D52A4B0135184008
:102170008EE76346002B47D04B1E012915D0FF295F
:102180002BD019004EE70C004B463D0084E7624619
:10219000002A8BD1002E92D180270024FF22FF033A
:1021A000DFE663460C00F71ABFE630006044012505
:1021B000430100D46CE70225F2E663460125981B33
:1021C000AEE6202364466046FC40DF1BB840431E59
:1021D000984120439FE705005EE74B4671E72023C7
:1021E00065466046CD40591A8840431E98412843B1
:1021F0001CE763460C000125F01A91E6002E95D0ED
:102200000C004F460022ACE64B460D0044E74F461B
:102210000022A6E6FFFFFFFBFFFFFF7D002800D0A6
:1022200036E7002400279CE641024200C30F490A1A
:102230000020120E7E2A03DD9D2A02DD094A98182D
:102240007047802000040143952A07DC9620821AFB
:10225000D1404842002BF3D10800F1E7963A914073
:10226000F7E7C046FFFFFF7F70B5051E0ED000F0F8
:1022700077F89E2304001B1A962B0CDC082801DD3E
:10228000083CA5406D026D0AD8B201E0002000258F
:10229000C005284370BD992B09DD020029001B32BF
:1022A00091404A1E91410522121AD5400D43052C3A
:1022B00012DC29000C4E31406A0709D00F2028405B
:1022C000042805D004314A0102D59F2331401B1B4D
:1022D00089014D0AD8B2DBE7621F95402900024E02
:1022E00031406A07F4D0E9E7FFFFFFFB84460800AE
:1022F0006146FFE71FB500F0BDF8002801D40021BA
:10230000C8421FBD10B500F049F84042013010BD71
:1023100010B500F0AFF8002801DB002010BD01204F
:1023200010BDC04610B500F0A5F8002801DD002062
:1023300010BD012010BDC04610B500F055F80028B2
:1023400001DC002010BD012010BDC04610B500F01A
:102350004BF8002801DA002010BD012010BDC04656
:102360001C2101231B04984201D3000C10391B0AC5
:10237000984201D3000A08391B09984201D3000989
:10238000043902A2105C40187047C04604030202E0
:1023900001010101000000000000000070B54200D2
:1023A00045024E024C00C30F6D0A0120120E760A40
:1023B000240EC90FFF2A06D0FF2C03D0A24201D160
:1023C000B54206D070BD002DFCD1FF2CFAD1002EF5
:1023D000F8D18B4206D00120002AF3D12800431EF9
:1023E0009841EFE70020EDE770B5420045024E024C
:1023F0004C00C30F6D0A120E760A240EC80FFF2A76
:102400001BD0FF2C0ED0002A1BD1002C01D1002E96
:102410001CD0002D0CD083421CD00221581E084035
:10242000013870BD002E22D1002AF4D1002DF2D146
:102430000028F6D101204042F3E7002D17D1FF2CF0
:10244000F0D0002CE7D1002EE5D1E6E70020002DEA
:10245000E7D0E2E7A24205DCEADBB54202D8E7D3E7
:102460000020DEE74342584140000138D9E702200E
:102470004042D6E770B5420045024E024C00C30F01
:102480006D0A120E760A240EC80FFF2A0BD0FF2CFD
:102490000DD0002A1FD1002C16D1002E14D10020FF
:1024A000002D10D009E0002D0CD1FF2C13D1002EEF
:1024B00008D1002A08D0834212D00221581E0840B9
:1024C000013800E0022070BD002DF4D10028FAD1BF
:1024D00001204042F7E7002CEDD1002EEBD1ECE7D4
:1024E000A24205DCF2DBB54202D8EFD30020EAE7D6
:1024F0004342584140000138E5E7C04600B583B08B
:10250000094A916B012319439163926B1340019324
:10251000019B00220221092001F006FC092001F0A4
:1025200035FC03B000BDC04600100240054B1A88C0
:10253000054B00209A4204D1044B1888431E984151
:10254000C0B2704700F8000855AA000002F8000861
:10255000044B1A88044B00209A4201D1034B18887F
:102560007047C04600F8000855AA000002F80008AD
:1025700070B504000D00FFF7D9FF002810D0FFF759
:10258000E7FF031CA84200D92B1C98B2011E06DDF0
:102590000023044D5A5DE25401338B42FADB70BDD7
:1025A0000020FCE708F80008F0B5CE46474680B5A5
:1025B00087B007000D002E4B0020994204D907B0C8
:1025C000C0BCB946B046F0BD01F0FEFD0223029347
:1025D0001D3304931E3B05930023019301A902A818
:1025E00001F098FE03000020002BE8D12B0C2904F9
:1025F000204A0A432049013001F034FEEB08994695
:10260000002B21DD3C0000261C4BDB1B984662782A
:102610001202A3781B041A4323781A43E3781B069B
:102620001A432379617909020B43A17909040B4309
:10263000E17909060B4341460919012001F012FE18
:10264000013608344E45E2DB002D08DD00230B483F
:10265000195CFA5C914206D10133AB42F8DB01F020
:1026600037FE0120ABE701F033FE0020A7E7C046AC
:10267000FC07000055AA000000F8000808F8000850
:1026800010B588B00C22002105A802F084FE1F4B73
:10269000596B012211435963596B0A400192019A07
:1026A000596B0222114359635B6B1A400292029BE1
:1026B000174B0393C424A4030494A02003A9C005CA
:1026C00001F076FE0823039304940023059303A9E5
:1026D000104801F06DFE00220121052001F024FBCD
:1026E000052001F053FB00220121062001F01CFB14
:1026F000062001F04BFB00220121072001F014FB12
:10270000072001F043FB08B010BDC0460010024096
:10271000E38100000004005000B587B010220021C2
:1027200002A802F038FE124B0193A02001A9C005B7
:1027300001F03EFE0823019300230293039301A9B5
:102740000C4801F035FE052001F02CFB062001F0BD
:1027500029FB072001F026FB074B5A6B01218A4316
:102760005A635A6B01318A435A6307B000BDC046B1
:10277000E38100000004005000100240F0B5C6469E
:1027800000B590B01C22002109A802F004FE0C2222
:10279000002105A802F0FFFD324D6B6B012633438B
:1027A0006B636B6B33400293029B80231B0103938B
:1027B000022404940696062398460893A027FF0552
:1027C00003A9380002F0C0FC80235B01039304944A
:1027D00000240594069607944346089303A93800FD
:1027E00002F0B2FCEA6B8021C9030A43EA63EB6B97
:1027F0000B400193019B1C4BC62189005A58FF20B6
:1028000082435A50802252041A600994174B0A934B
:102810000B940C94164D2B785B000D930E940F9433
:10282000144C09A9200002F023FD626880239B0458
:1028300013436360E368104A1340E360E3680F4AA0
:102840001340E36023680E4A1340236023680D4A57
:1028500013402360287800F017F810B080BCB84609
:10286000F0BDC0460010024000E100E0BC7D7010E9
:10287000980600200058004001F8FFFFFF7FFFFF8F
:10288000FFFFF7FFFFFFFDFF4000C0B2014B1870D4
:102890007047C046280300200A4B1A6801210A43EA
:1028A0001A601A6807310A431A601A6808310A4325
:1028B0001A601A6870310A431A601A6860390A434C
:1028C0001A60704700580040084B1A6808218A4374
:1028D0001A601A6808318A431A601A6870318A438C
:1028E0001A601A6860398A431A60704700580040BD
:1028F00010B50C0096239B00994202D8002902D102
:102900000DE09624A400002809D02200010004480C
:1029100002F038FD034B00221A80034B1C8010BDCF
:10292000380300209005002092050020054A1388F6
:1029300099B201339BB21380034B5B6ADBB2034A4B
:10294000535470479405002000580040D0000020E8
:102950000A4A13889BB20A49CB5CDBB209498B62F5
:10296000138801339BB213801388074A12889BB2E5
:10297000934202D3014B00221A8070479005002039
:1029800038030020005800409205002070B5544BD9
:102990001A6801321A601A68FA239B009A4214D806
:1029A000504B9B691B0728D54E4B9B694E4A1178AB
:1029B000C9B25B0C5B00FF221340994230D0494AF8
:1029C000D36908210B43D36170BD464C200002F04F
:1029D00023FC6368454A13406360236801229343E4
:1029E00023602368073293432360FFF7C7FEFFF796
:1029F00053FF3B4B00221A60D2E73A4B9B69DB0640
:102A000045D4384B9B699B0747D4364B9B695B0782
:102A100046D4344B9B699B0645D4324B9B69D3E724
:102A2000334B1B889BB2002B10D12E4B9B69DB03D1
:102A300019D42C4BDA6908210A43DA611A6804397F
:102A40000A431A602B4B01221A60BDE7FFF73CFFD7
:102A5000274C218889B2284800F088F90023238078
:102A6000FFF71AFFE1E71F4B9B69DB0309D51D4BFD
:102A7000DA6908210A43DA611A6806390A431A60DA
:102A8000A2E7184AD36908210B43D3619CE7154A92
:102A9000D36910210B43D36196E7FFF759FF93E702
:102AA000FFF744FF90E70F4BDA6920210A43DA6110
:102AB0009B69DB0702D40B4B01229A61FFF704FFED
:102AC0000B4D298889B20C4800F050F900242C8065
:102AD000FFF7E2FE074B1C60084B1C6074E7C04622
:102AE000340300200058004028030020FFFFFFFDB2
:102AF0009405002030030020D00000202C0300208B
:102B000082B080239B050C480C4A99181A000433A4
:102B1000096811608342F7D1094A116C01231943F6
:102B20001164126C13400193019B064A1368032140
:102B30000B43136002B07047C0000020001800E88B
:102B4000001002400000014070B586B01422002140
:102B500001A802F020FC0E4B5A6B012422435A6359
:102B60005B6B23400093009BC0267601A025ED05FA
:102B700000223100280001F00FFD0196002302938E
:102B80000394049301A9280001F012FC06B070BD63
:102B90000010024070B586B01422002101A802F096
:102BA000FAFB0F4B5A6B012422435A635B6B2340A1
:102BB0000093009B8026B601A025ED05012231007F
:102BC000280001F0E9FC01960294002303930333EB
:102BD000049301A9280001F0EBFB06B070BDC046CC
:102BE0000010024010B5802149001C48FFF7C0FCCE
:102BF00000281CD147231A4A1370184C2370194B14
:102C00001B786370A01C2022174902F0BBFB200038
:102C100022302022154902F0B5FB154B1A784223C9
:102C2000E254802149002000FFF7BEFC10BD0B4C90
:102C300022780B4B1A7062780A4B1A70A11C202262
:102C4000094802F09FFB210022312022074802F0B0
:102C500099FB4223E25C064B1A70E7E798050020D7
:102C600098060020A1060020B4060020D40600200B
:102C7000A806002010B5802149001148FFF778FC14
:102C8000002800D110BD0E4C0E4B1B7823700E4B4C
:102C90001B786370A01C20220C4902F073FB2000FB
:102CA000223020220A4902F06DFB0A4B1A78422397
:102CB000E254802149002000FFF776FCE2E7C0469D
:102CC0009805002098060020A1060020B4060020E8
:102CD000D4060020A806002010B5A022D205146951
:102CE000204B19780120204001431970146919788C
:102CF000022020400143197013699B06DB0F9B00E3
:102D000018490A7813430B70A023DB051B695B0687
:102D1000DB0FDB000A7813430B70A023DB051B6974
:102D20001B06DB0F1B010A7813430B70A023DB0586
:102D30001B691B04DB0F5B010A7813430B700A4B02
:102D40001B691B07DB0F9B010A7813430B70A02341
:102D5000DB051B69DB05DB0FDB010A7813430B7016
:102D600010BDC046A906002000040050F0B5D646AC
:102D70004F464646C0B5A2B004000D0000230A939A
:102D80002C2200210BA802F006FB012D00D85EE1E9
:102D90002378FF2B0CD0F12B1BD0F02B29D01A005D
:102DA000103A092A44D8013D00200AAA01212CE04A
:102DB000022D00D04DE162780123E356002B00DAAA
:102DC00047E1C94B1A70C94B01221A70FFF7D6FCB4
:102DD0003FE163785A1E9341DBB2C54A1370C34B7F
:102DE000012119701378002B00D132E1FFF7D2FED8
:102DF0002FE1BE4B01221A702BE1967A002E01D1F1
:102E0000092B12D0A84200DB23E12378103B1B18CA
:102E1000DBB20130275CD154567A002EEDD1967A80
:102E2000002EEFD1B34EF754ECE7B34B1F70E9E738
:102E30001A00203A232A10D91A00703A1F2A51D8B2
:102E4000013D0022AD4E2378703B9B18DBB201326E
:102E5000A05CF054AA42F6DBFBE0A94B186800F036
:102E600073FD011E14D0A74E2422306802F08AFAA6
:102E70003168A34B186800F039FD013D00220AA912
:102E8000012624239A469F4B98469D4B9C4613E06F
:102E90002422002101A802F07EFA9A4B196824220C
:102EA00001A802F06FFA964B186801A900F01EFD08
:102EB000E3E7AA4200DBCCE02378203B9B18DBB29F
:102EC0000132A75CB946CE5450460F5C002FF0D1BA
:102ED000404607684846F854604607687F68484699
:102EE000F854E6E71A007032D2B21F2A0CD8013D1E
:102EF0000022854E237870339B18DBB20132A05C30
:102F0000F054AA42F6DBA4E01A00503A082A2AD963
:102F1000FD2B00D09DE06378012B00D099E07B4B26
:102F200001221A701B78002B00D192E0784C20000F
:102F300002F072F96368774A1340636023680122E4
:102F4000934323602368073293432360724800F061
:102F5000B1FCFFF7E1FBFFF7F7FD80263601A02566
:102F6000ED056E4C46E06E4B186800F025FD011E25
:102F700012D06C4E0922306802F004FA3168684BB6
:102F8000186800F0EBFC013D00220AA80127654B00
:102F90009846634B9C4614E00023019305220021D0
:102FA00002A802F0F8F95F4B1968092201A802F0A3
:102FB000E9F95B4B186801A900F0D0FCE3E7AA42ED
:102FC00047DA2378503B9B18DBB20132A65CC7542A
:102FD000417A0029F3D141460968CE546146096817
:102FE0004968CE54EBE723680133236022684E4BD7
:102FF0009A420DD83100280001F0C8FA0028F2D119
:1030000080214901280001F0C1FA0028EBD102E03B
:103010003E4B00221A70414B1A68434B9A420DD91D
:10302000FFF72EFBFFF76AFA00F002FCFFF7A6FBA2
:10303000FFF732FC394B00221A600AE0BFF34F8FD2
:103040003A4B3B4ADA60BFF34F8FC046FDE7012D94
:1030500005D022B0E0BCBA46B146A846F0BD2578FE
:10306000FF2D13D0FE2D16D0F12D19D0002D1CD11F
:103070001F4B1B78002B04D0A023DB05802292017C
:103080009A6101212B48FFF733FCE2E70121164842
:10309000FFF72EFCDDE701212748FFF729FCD8E7E1
:1030A00001211348FFF724FCD3E72B00603B072BDB
:1030B00046D816A900221F4E012520483378DBB2DE
:1030C00013412B4013540B7001320131082AF5D102
:1030D00020786821091A89B28823C018684490387A
:1030E000FFF706FCB5E7C04698060020A0060020C2
:1030F000A1060020AC070020A8060020B40600208E
:103100008C09002084090020D406002096050020A8
:1031100000580040FFFFFFFD54070020A4060020D8
:1031200088090020800900205FEA000000ED00E02F
:103130000400FA05A906002000000020AC060020CB
:103140002B00103B092B22D92B00203B232B30D9FD
:103150002B00503B082B3DD92B00703B1F2B4AD92D
:103160002B007033DBB21F2B00D972E716A82A4B55
:10317000020052CB52C252CB52C212CB12C2B02169
:10318000491B89B2903D4019FFF7B2FB61E716ACCD
:1031900009222249200002F0F5F8214B1B786372C6
:1031A0001A21491B89B2280010382018FFF7A0FB0C
:1031B0004FE71C4B1968242216A802F0E3F84421BB
:1031C000491B89B22800203816AB9C466044FFF7A3
:1031D0008FFB3EE7144B1968092216A802F0D2F8BB
:1031E0005921491B89B22800503816AB9C466044CF
:1031F000FFF77EFB2DE716A80C4B020052CB52C204
:1032000052CB52C212CB12C29021491B89B2703DDF
:103210004019FFF76DFB1CE7D4060020AC07002027
:10322000A80600208409002080090020B4060020A0
:1032300010B5284A136807218B4305390B431360E7
:10324000110007220B681340022BFBD1224A1168A0
:10325000FE330B43136011008022D2000B6813422F
:10326000FCD01D4BDA681D4911401D4A0A43DA6043
:103270001968802252040A431A60D96880225205D4
:103280000A43DA601900802292040B681342FCD0D2
:10329000114A936813490B409360936807218B434D
:1032A00005390B439360110038228B681340102BB3
:1032B000FBD1094A93680C490B4093600B4802F01C
:1032C00013F8032000F0D0FC002800D110BD72B626
:1032D000FEE7C04600200240001002408C80FF1F25
:1032E00002080020FFF0FFFFFF8FFFFF0090D003D8
:1032F000F0B5DE4657464E464546E0B58DB0FFF781
:10330000FFFB00F0D9FCFFF793FFFFF7B9F9FFF7D8
:10331000F5F800F08DFAFFF765FC654B1B78002B84
:1033200018D1092000F04AFBFFF7D6FCFFF726FA78
:10333000FFF7B2FA0024E0B2002100F06FFB013485
:10334000092CF8D100F0F4FB5A4B9B4600255A4B50
:103350009A4666E0FFF71EFCE3E700F0CDFC574B12
:103360001B68984263D9564A13680133136000F012
:10337000C3FC0A30514B186059E0524C200001F058
:103380004BFF6368504A13406360236801229343F4
:1033900023602368073293432360FFF7EFF9FFF7B9
:1033A0007BFAFA20400000F0ADFC44E0474F484E65
:1033B0000024484B99460123984608E0E0B2316862
:1033C00000F02CFB013404370436082C0BD04B469C
:1033D0001B78DBB2234142461A42EFD0E0B2396893
:1033E00000F01CFBEEE72900082000F017FB3A4B29
:1033F00001221A7000F09CFB30E0374B01221A705A
:1034000000F096FB354B1868694600F0BDFA0128BC
:1034100039D0334B1B78002B03D0FFF72BFC304BFC
:103420001D705B461D6053461B68002B95D1244BD5
:103430001B68322BA1D82422290003A801F0ABFF7E
:1034400000950522290001A801F0A5FF224B1B7859
:10345000002BDED1234B1B78002BA7D1224B186801
:1034600003A900F059FA0128CCD11E4B1B78002B80
:10347000C8D103AE002402CEE0B200F0CFFA01348E
:10348000092CF8D1B9E7174B1B78002BC1D16E4638
:1034900000243178E0B200F023FB01340136092C1E
:1034A000F7D10D4B01221A7000F042FBB1E7C04684
:1034B000A106002034030020300300209C060020D9
:1034C0002C03002000580040FFFFFFFDD406002021
:1034D000B4060020A90600209009002088090020D9
:1034E000A0060020A80600208C09002072B6FEE786
:1034F00082B00A4B196C012211431964196C0A40FD
:103500000092009ADA6B802149050A43DA63DB6B8B
:103510000B400193019B02B07047C046001002406F
:10352000FEE7FEE77047704710B500F0D9FB10BD0D
:1035300010B5012001F038F8022001F035F8A02381
:10354000DB051B69DB0720D5A023DB0518691549BE
:103550000B780122024013430B70A023DB051B698B
:103560009B0718D5A023DB0518690E490B780222AA
:10357000024013430B700C4B1B78002B04D0A0238C
:10358000DB05802292019A6210BD064A1378012160
:103590008B431370E1E7034A137802218B431370C6
:1035A000E9E7C046A9060020A106002010B50820C2
:1035B00000F0FAFF0E4B1B691B0712D50C4B1B6961
:1035C0001B07DB0F9B010B490A7813430B700A4B57
:1035D0001B78002B04D0A023DB05802292019A6285
:1035E00010BD044A137840218B431370EFE7C046A7
:1035F00000040050A9060020A106002010B52020DC
:1036000000F0D2FF402000F0CFFF802000F0CCFF80
:103610008020400000F0C8FF8020000200F0C4FFBE
:10362000A023DB051B699B064FD5A023DB051B6987
:103630009B06DB0F9B0034490A7813430B70A023D1
:10364000DB051B695B0646D5A023DB051B695B0612
:10365000DB0FDB002C490A7813430B70A023DB053A
:103660001B691B063DD5A023DB051B691B06DB0F71
:103670001B0125490A7813430B70A023DB051B6946
:10368000DB0534D5A023DB051B69DB05DB0FDB0184
:103690001D490A7813430B70A023DB051B691B042B
:1036A0002BD5A023DB051B691B04DB0F5B0116492F
:1036B0000A7813430B70154B1B78002B04D0A02302
:1036C000DB05802292019A6210BD0F4A1378042113
:1036D0008B431370B3E70C4A137808218B431370A4
:1036E000BCE7094A137810218B431370C5E7064ADB
:1036F00013787F210B401370CEE7034A1378202103
:103700008B431370D7E7C046A9060020A10600200E
:1037100010B5024800F0F2FC10BDC046F8060020CB
:1037200010B503000C4A0D49521A0D4909680029C9
:1037300007D00B490868C318934206D8084A13609B
:1037400010BD074907480860F3E701F0DDFD0C23D1
:10375000036001204042F3E7002000200004000045
:10376000F4060020D00900207047000010B582B098
:103770000400174B02689A4201D002B010BD154AEE
:10378000D16B02231943D163D26B13400193019B88
:103790001148124B036021234360113B83600023D7
:1037A000C36080220261803242618022D200826145
:1037B000C36180235B01036200F05EFB002803D13C
:1037C000054BA3629C62D8E7FFF790FEF8E7C0467E
:1037D0000004004000100240F806002008000240EB
:1037E00010B586B004001422002101A801F0D3FD19
:1037F0000C4B22689A4201D006B010BD0A4A516BA8
:10380000022319435163526B1A400092009A2022FE
:1038100001920293013B059301A9044800F0C8FD01
:10382000EAE7C046000400400010024000040050D7
:1038300000B58BB00C22002107A801F0ACFD1C22C2
:103840000021684601F0A7FD1848194B03600023CA
:10385000436083604F22C2600361836101F0DEF840
:1038600000281AD100230793099307A90F4801F0F4
:103870002FFC002814D160230093002301930293AE
:10388000049304226946094801F034F900280AD15A
:103890000648FFF7A5FF0BB000BDFFF727FEE1E7E5
:1038A000FFF724FEE7E7FFF721FEF1E754070020CA
:1038B0000004004010B5074B02689A4200D010BDCA
:1038C000054AD36B02218B43D363806A00F038FB37
:1038D000F5E7C046000400400010024010B5082083
:1038E00001F03CFD00234360036010BD70B505008E
:1038F0000E00282001F032FD04002422310001F0E6
:1039000041FD002363626B68002B02D05C626C6037
:1039100070BD6C602C60FBE770B504000800256882
:10392000002D0FD02422290001F02CFD23685B6AB2
:103930002360002B04D0280001F01AFD012070BD87
:103940006360F8E70020FAE74068704710B5082088
:1039500001F004FD00234360036010BD70B5050055
:103960000E00102001F0FAFC04000922310001F0E1
:1039700009FD0023E3606B68002B02D0DC606C6003
:1039800070BD6C602C60FBE770B504000800256812
:10399000002D0FD00922290001F0F4FC2368DB6818
:1039A0002360002B04D0280001F0E2FC012070BD50
:1039B0006360F8E70020FAE74068704710B504003C
:1039C000042101F097FC0F4B18600421200001F046
:1039D00091FC0D4B18600121200001F08BFC0B4B7A
:1039E0001860FFF77BFF0A4B1860FFF7AFFF094B2A
:1039F0001860094B19000931FF221A7001338B42FC
:103A0000FBD110BDB80700208409002080090020E8
:103A10008C09002088090020AC070020F8B5CE46AC
:103A2000474680B504000D00082848D8264B1B5C8B
:103A3000013B082B02D8244B0A221A54224B185D52
:103A4000FEF712FC2149FEF703F8061C280CFF279D
:103A50003840FEF709FC311CFEF712F9FDF7E0FFD4
:103A600083B29946280A3840FEF7FEFB311CFEF768
:103A700007F9FDF7D5FF83B2984638002840FEF7D6
:103A8000F3FB311CFEF7FCF8FDF7CAFF80B24A4693
:103A90004B46FF2B00D9FF220D490A5542464346AB
:103AA000FF2B00D9FF220B490A55021CFF2800D921
:103AB000FF22094B1A55094B1B68A400E550C0BCF6
:103AC000B946B046F8BDC046AC07002000007F43B1
:103AD0009409002074090020A0070020B8070020E6
:103AE000F8B508281FD88B099C46CE1007252E4014
:103AF0002940CF0018231F404C012143F4002340EC
:103B00007401344362469200654615432A011C4302
:103B1000240239430C432A43120414432100FFF7C3
:103B20007DFF2000F8BD014CFBE7C046FFFFFF0012
:103B3000F8B5DE4657464E464546E0B5284C0421CA
:103B4000200001F087F80421200001F02BFA254B1A
:103B5000994600239846244B9A4680239C46272466
:103B6000C34607E05B4601339B4630229046C14482
:103B7000092B28D052465B469E5C1C4A9D5C1C4A21
:103B8000985C4A460021804663460B411F0037403F
:103B9000781E87417F422740143717802F001F402F
:103BA000781E87417F4227401437178240460340E2
:103BB0005F1EBB415B422340143313840131023248
:103BC0000829E1D1CEE7DC230A4A0421044801F0A8
:103BD0009BF8F0BCBB46B246A946A046F8BDC0461D
:103BE00054070020C2070020740900209409002017
:103BF000A0070020BC07002010B50421034801F0F5
:103C000029F8034B00221A7010BDC046540700204B
:103C1000900900200D488546FFF7A6FD0C480D4988
:103C20000D4A002302E0D458C4500433C4188C4217
:103C3000F9D30A4A0A4C002301E013600432A2427D
:103C4000FBD301F067FBFFF753FBFEE700200020EA
:103C500000000020B400002054570008B4000020E9
:103C6000D0090020FEE7000010B504000F4B1978C2
:103C70000120002900D110BDFA208000FDF744FE8C
:103C800001000B4B1868FDF73FFE00F09BF80300A6
:103C90000120002BEFD1032CEDD80022210040425F
:103CA00000F042F8034B1C600020E4E7080000200D
:103CB000040000200C00002010B5084A1168802381
:103CC0005B000B4313600320FFF7CEFF041E02D0FE
:103CD0000124200010BDFFF70BFCFAE70020024092
:103CE000034A1168034B1B785B1813607047C0468A
:103CF000A009002008000020014B18687047C0464A
:103D0000A009002070B50400FFF7F6FF0500631C52
:103D100002D0044B1B78E418FFF7EEFF401BA042D3
:103D2000FAD370BD0800002070B5002814DB8408A9
:103D3000A400144B9C466444C026B600A559032237
:103D40001040C000FF231A008240954389010B40B8
:103D500083402B43A35170BD0F230340083B9B08B6
:103D60009B00094A94466344DC6903221040C0006A
:103D7000FC3215008540AC4389010A408240224351
:103D8000DA61E8E700E100E000ED00E0002805DB93
:103D90001F2318401E3B8340014A13607047C046F2
:103DA00000E100E000280ADB1F2318401E3B83408F
:103DB000034980228B50BFF34F8FBFF36F8F704743
:103DC00000E100E0013880235B0498420FD2094AE9
:103DD00050600948036A1B021B0AC02109060B43F5
:103DE00003620023936007331360002070470120B3
:103DF000FCE7C04610E000E000ED00E0F0B5846CA8
:103E0000C56C6560046D002C02D0446D856D6560E5
:103E10000B4E77681C25046C25400124AC403C43C4
:103E20007460046863608368102B04D00368996031
:103E30000368DA60F0BD03689A600368D960F9E747
:103E40000000024010B50400036C9B08084A944629
:103E500063449B004364007808381421FDF754FD47
:103E6000044BA3641F2318401E3B8340E36410BD32
:103E7000008200108008024070B5041E55D005680D
:103E80002B4BE8181421FDF73FFD8000206425230B
:103E90000222E2542B68274A13402B6022681168E3
:103EA000A368E06803432069034360690343A06992
:103EB0000343E0690343206A03430B43136020007C
:103EC000FFF7C0FF8023DB01A2689A4218D0626C22
:103ED0003F2361680B401360A36CE26C5A60636817
:103EE0005A1E032A0FD9002323656365A3650023A7
:103EF000E36325220121A154013AA354002070BD9F
:103F000000236360E3E73F2213400B4A9A189200B4
:103F100022650A496165013B01219940A1650023A1
:103F20001360636DA26D5A60E1E70120E7E7C046C8
:103F3000F8FFFDBF0F80FFFF3F82001040090240E5
:103F4000F8B5041E42D0026813680125AB43136024
:103F500007681F4BF8181421FDF7D6FC8000206479
:103F600000263E601B4A51681C23206C03409D4084
:103F70000D4355602000FFF765FF636C1E60A36C66
:103F8000E26C5A6063685A1E032A0ED90023236527
:103F90006365A365E36223636363A363E36325222D
:103FA000A354013AA3540020F8BD3F2213400A4A0B
:103FB0009A18920009496165013B01219940A16568
:103FC00000231360636DA26D5A60DFE70120EBE709
:103FD000F8FFFDBF000002403F8200104009024090
:103FE00070B504002420205C012845D02420012540
:103FF00025540130205C012806D08023E3635C3B1C
:104000000022E254012070BD2430013525540020E7
:10401000E063256828680126B04328602000FFF788
:10402000EDFE236B002B1CD0226813680E210B437E
:104030001360636C1A68D20304D519688022520099
:104040000A431A60236D002B04D0196880225200A5
:104050000A431A602268136801210B431360002091
:10406000D1E72268136804218B4313602268136828
:1040700006310B431360DCE70220C4E770B525234B
:10408000C35C022B03D00423C363012070BD02680C
:1040900013680E218B43136001680A6801239A4359
:1040A0000A60416C0A68134C22400A6012494C684D
:1040B0001C22056C2A40934023434B60836CC26CE6
:1040C0005A60036D002B06D01A680A490A401A602C
:1040D000436D826D5A6025230122C254013B0022A8
:1040E000C254836B002B02D098470020CEE70020FB
:1040F000CCE7C046FFFEFFFF0000024070B5314B29
:104100001968046825681C23026C134004229A4035
:10411000114216D06A0714D523689B0603D423687E
:1041200004229343236027494C681C22036C1A40E5
:104130000423934023434B60036B002B00D098472C
:1041400070BD02229A4011421CD0AA071AD52368DA
:104150009B0606D423680A22934323602523093A49
:10416000C25418494C681C22036C1A400223934025
:1041700023434B6024230022C254C36A002BDFD0A8
:104180009847DDE708229A401142D9D02B07D7D5AE
:1041900023680E22934323600A4C65681C21036C3C
:1041A000194001231A008A402A436260C363252212
:1041B000835423330022C254436B002BC0D0984752
:1041C000BEE7C04600000240064B5B690020002BA2
:1041D00000DB7047034B044A9A60044A9A605869AE
:1041E000C00FF6E70020024023016745AB89EFCD01
:1041F000F8B50400FFF780FD0700164E80256D021C
:1042000033692B4208D0631CFAD0FFF775FDC01B41
:10421000A042F5D303201CE00E490A690E4B15009D
:104220001D400E4808611A420ED10E008025ED0295
:1042300033692B420CD0631CFAD0FFF75DFDC01B25
:10424000A042F5D3032004E0054B5D60012000E0AF
:104250000020F8BD00200240FAC30000FBC30000AC
:10426000A4090020F8B506000F0014001D00164B2D
:104270001B78012B26D0144B01221A7000225A60A1
:10428000FA208000FFF7B4FF00280DD1012E0FD0D7
:104290002100380001F0C8F9FA208000FFF7A8FFDC
:1042A0000A4A5369B3435361074B00221A70F8BDA1
:1042B000064A536901210B4353613C60BFF36F8F82
:1042C0007D60E9E70220F2E7A40900200020024017
:1042D00010B5FA208000FFF78BFF054B596980224B
:1042E00012060A435A615869C043C00F10BDC04648
:1042F00000200240044A5369C9000448034019439E
:10430000034B1943516170470020024007E0FFFF53
:1043100002000100F8B505000E00224B1B78012BAE
:104320003ED0204B01221A7000225A60FA208000F1
:10433000FFF75EFF00282FD104236B602B68042B4E
:104340001AD001235B423360AC68EB68E3189C42EF
:104350001DD2FA27BF0021006868FFF7CBFF3800A5
:10436000FFF746FF002811D10134AB68EA68944694
:104370006344A342EFD80AE00B4A51690B4B0B434D
:104380005361FA308000FFF733FF05E03460064ADE
:10439000536902218B435361024B00221A70F8BD0E
:1043A0000220FCE7A40900200020024004000100D4
:1043B000F0B5DE4657464E464546E0B585B00E6838
:1043C000002E00D1D3E0002200230124A4460234B1
:1043D000C025AD02A9460F25AA46684D45196F4272
:1043E0007D416D4203954FE0866827009740BE43AC
:1043F000B046CE68964047463E4386604668AE4328
:104400004D682D0967463D409D403543456047E076
:1044100000265F46BE4047463E432E66584D2D68F7
:10442000019EF64302964F68FE0200D593E0029E7D
:104430003540534F3D607D684F68BE0200D58DE02A
:10444000029E35404E4F7D6084257D594F68BE03E6
:1044500000D586E0029E3540494FB8468427BB46CA
:1044600047465E46BD5180257D594E68F6037BD494
:10447000029E35402F00424E8025775101330E6851
:1044800002323500DD4072D065469D4037002F4036
:1044900001972E42F2D04E682640013E012EA3D94C
:1044A0004D682540032D23D0C56826009640B543AE
:1044B0002E008D6895403543C5604D682540022D1E
:1044C00016D1DD08AD00451902952E6AB0460726C3
:1044D0001E40B6005746B740BB4647465D46AF4311
:1044E000B8460F69B7403E0045462E43029D2E62F6
:1044F000056826009640B5432E004D68254095403E
:10450000354305604D684E463542B7D09D08AD0035
:104510001B4EB04645442E6E029627001F40FF00FA
:10452000BB4657465E46B740029EBE43B046A026F5
:10453000F605B04200D16BE7124EB04207D0124EE2
:10454000B04206D0039E6746BE43053661E70126AA
:104550005FE702265DE7019E35436AE7019E35432A
:1045600070E7019E354377E7019F2F4383E705B04E
:10457000F0BCBB46B246A946A046F0BD00F4FFAF72
:104580000018024000040050000800500069084074
:10459000431E9841C0B27047002A01D08161704724
:1045A0008162FCE77047704710B50400094BDB6877
:1045B000184204D1074B1B69234205D110BD054B9E
:1045C000D860FFF7EFFFF5E7024B1C612000FFF713
:1045D000EAFFF3E70018024070B5036A026A01249B
:1045E000A243026244688269184D2A400D682A433A
:1045F0000225AB438D682B43154DA84213D0154DB2
:10460000A84209D0144DA84219D10825AB43CD6862
:104610002B430425AB430CE00825AB43CD682B436B
:104620000425AB4305E00825AB43CD682B430425A7
:10463000AB430A4D2C404D698E6935432C43446091
:1046400082614A684263036270BDC0468CFFFEFF10
:10465000002C01400044014000480140FFFCFFFFE6
:1046600070B5036A026A164C224002624468C2694D
:10467000144D2A400E681643134A13408A681202EA
:104680001343124A904206D0114A90420AD0114A6E
:1046900090420ED106E0104A1A40CB681B02134329
:1046A0000E4A13400E4A22408C694D692C43240166
:1046B00014434460C6614A68C263036270BDC04669
:1046C000FFFEFFFF8CFFFEFFFFFDFFFF002C014000
:1046D0000044014000480140FFF7FFFFFFFBFFFFE0
:1046E000FFCFFFFF30B5036A026A114C224002621D
:1046F0004568C2690F4C22400C68240222430E4CCC
:104700001C408B681B0323430C4CA04205D00C4C6F
:10471000A04202D00B4CA04204D10B4C25404C6966
:10472000A40125434560C2614A680264036230BD4A
:10473000FFEFFFFFFF8CFFFEFFDFFFFF002C0140BC
:104740000044014000480140FFBFFFFF30B5036A4D
:10475000026A114C224002624568426D0F4C2240B1
:104760000C6822430E4C1C408B681B0423430D4CE9
:10477000A04205D00C4CA04202D00C4CA04204D167
:10478000054C25404C6924022543456042654A6832
:104790008265036230BDC046FFFFFEFF8FFFFEFF54
:1047A000FFFFFDFF002C0140004401400048014094
:1047B00030B5036A026A114C224002624568426DBC
:1047C0000F4C22400C68240222430E4C1C408B6884
:1047D0001B0523430C4CA04205D00C4CA04202D038
:1047E0000B4CA04204D10B4C25404C69A40225433C
:1047F000456042654A68C265036230BDFFFFEFFF56
:10480000FF8FFFFEFFFFDFFF002C0140004401404F
:1048100000480140FFFFFBFF10B5846A636A8342D2
:104820000ED0A36A834214D0E36A83421AD0236B6A
:10483000834220D02000FFF7DFF90023237710BD4B
:1048400001232377C369002BF4D13E330122E254C4
:10485000F0E702232377C369002BEBD13F3301221A
:10486000E254E7E704232377C369002BE2D1403306
:104870000122E254DEE708232377C369002BD9D154
:1048800041330122E254D5E7704710B5846A636A68
:1048900083420BD0A36A834210D0E36A834210D0D4
:1048A000236B834204D10823237701E0012323777C
:1048B0002000FFF7E9FF0023237710BD02232377B1
:1048C000F6E704232377F3E7704710B5846A636A39
:1048D00083420CD0A36A834213D0E36A834216D08A
:1048E000236B834219D03D230122E25403E00123CC
:1048F00023773E22A3542000FFF7E6FF002323770F
:1049000010BD022323773D330122E254F3E7042351
:1049100023773C330122E254EDE708232377393330
:104920000122E254E7E700000368364A90423AD099
:104930008022D205904253D0334A90422ED0334A3F
:10494000904251D0324A90420CD0324A904217D015
:10495000802293434A69134303608B68C3620B68E8
:10496000836233E02C4A1340CA6813438022934386
:104970004A69134303608B68C3620B68836223E058
:10498000254A1340CA681343802293434A6913435C
:1049900003608B68C3620B68836215E070229343E7
:1049A0004A68134320E0702293434A6813431A4A2B
:1049B0001340CA681343802293434A691343036038
:1049C0008B68C3620B6883620B69036301234361D5
:1049D0000269134203D003690122934303617047C4
:1049E000702293434A6813430B4A1340CA68134327
:1049F000802293434A69134303608B68C3620B6848
:104A00008362E3E7002C01400004004000200040E6
:104A10000044014000480140FFFCFFFF70B5041E48
:104A20002AD03D23C35C002B20D03D2502236355B3
:104A3000210001C9FFF778FF01234822A3540A3A55
:104A4000A3540132A3540132A3540132A3540132BE
:104A5000A3540132A3540132A3540132A3540132AE
:104A6000A3540132A3546355002070BD3C3300228F
:104A7000C254FEF77BFED8E70120F6E770B5026A64
:104A8000036A1024A343036243688569144C2540DC
:104A90000C68240225432024A2438C68240122436D
:104AA000104CA04206D0104CA0420BD00F4CA0429C
:104AB0000FD107E08024A2431400CA6812012243E8
:104AC0004024A2430A4E1E408B694C6923439B003D
:104AD0003343436085614B688363026270BDC046A7
:104AE000FF8CFFFE002C01400044014000480140C3
:104AF000FFF3FFFF70B504000D003C23C35C012BE6
:104B000000D192E03C230121C154142A00D987E04E
:104B10009200474B9B589F4629000068FFF75CFDB9
:104B20002268936908210B439361226893690439D1
:104B30008B4393612268936929690B439361002039
:104B40006FE029000068FFF799FF226891698023D0
:104B50001B010B4393612268936936490B409361B3
:104B6000226891692B691B020B439361002058E076
:104B700029000068FFF774FD2268D36908210B4300
:104B8000D3612268D36904398B43D3612268D36926
:104B900029690B43D361002043E029000068FFF737
:104BA000A1FD2268D16980231B010B43D3612268D8
:104BB000D36920490B40D3612268D1692B691B025C
:104BC0000B43D36100202CE029000068FFF7BEFDF5
:104BD0002268536D08210B4353652268536D0439D5
:104BE0008B4353652268536D29690B43536500203D
:104BF00017E029000068FFF7DBFD2268516D802374
:104C00001B010B4353652268536D0A490B405365E2
:104C10002268516D2B691B020B435365002000E095
:104C200001203C230022E25470BD0220FCE7C04674
:104C3000F8560008FFFBFFFF10B51F231940036A59
:104C400001248C40A3430362036A8A401A43026230
:104C500010BD000070B504000D0000220068FFF7D1
:104C6000EBFF2368224A934219D0224A934216D07E
:104C7000214A934213D02368196A204A114207D16E
:104C8000196A1F4A114203D11A6801218A431A6026
:104C9000002D11D13E230122E254002070BD196A7B
:104CA000164A1142E7D1196A154A1142E3D15A6CEA
:104CB00014490A405A64DEE7042D09D0082D0BD0B0
:104CC0000C2D0DD0102D0FD043230122E254E4E728
:104CD0003F230122E254E0E740230122E254DCE7D3
:104CE00041230122E254D8E742230122E254D4E7CF
:104CF000002C014000440140004801401111000017
:104D000044040000FF7FFFFF70B506000D00110096
:104D1000002D09D13E22845C023C62425441E4B23F
:104D2000002C2CD002201FE1042D0CD0082D11D016
:104D30000C2D16D0102D1BD04322845C023C624205
:104D40005441E4B2ECE73F22845C023C62425441AD
:104D5000E4B2E5E74022845C023C62425441E4B2A2
:104D6000DEE74122845C023C62425441E4B2D7E770
:104D70004222845C023C62425441E4B2D0E7002DFE
:104D800053D13E22B25C013A50424241D2B201209C
:104D9000002A00D1E8E0002900D1E2E0002B00D198
:104DA000E1E0002D6FD13E220220B054726A7548B6
:104DB000D062726A74481063726A744850633268D1
:104DC0003432706AFFF70CF9002800D0CDE0326869
:104DD000D16880239B000B43D360012229003068F7
:104DE000FFF72AFF33686A4A934205D0694A934223
:104DF00002D0694A934209D1596C802212020A43B7
:104E00005A643368624A934200D19CE08022D20502
:104E1000934200D197E0614A934200D193E01A682F
:104E200001210A431A6000209EE0042D0FD0082DB6
:104E300014D00C2D19D0102D1ED04322B25C013A93
:104E400050424241D2B20120002AA4D18CE03F223C
:104E5000B25C013A50424241D2B298E74022B25C81
:104E6000013A50424241D2B291E74122B25C013A4A
:104E700050424241D2B2E6E74222B25C013A50428D
:104E80004241D2B2DFE7042D0AD0082D22D00C2DEA
:104E90003AD0102D52D043230222F254012063E075
:104EA0003F220220B054B26A3648D062B26A364815
:104EB0001063B26A3548506332683832B06AFFF71F
:104EC0008FF8002853D13268D1688023DB000B4370
:104ED000D36082E740220220B054F26A2948D062AF
:104EE000F26A29481063F26A2848506332683C32FB
:104EF000F06AFFF775F800283BD13268D16880234B
:104F00001B010B43D36068E741220220B054326B8F
:104F10001C48D062326B1C481063326B1B485063D4
:104F200032684032306BFFF75BF8002823D13268DB
:104F3000D16880235B010B43D3604EE742230222FA
:104F4000F254012010E09A6815490A40062A14D04C
:104F500007398A4213D01A6801210A431A600020D7
:104F600002E0012000E0012070BD0120FCE70120EB
:104F7000FAE70120F8E70120F6E70020F4E7002037
:104F8000F2E7C046194800088B480008CB480008E3
:104F9000002C014000440140004801400004004052
:104FA0000700010070B505000C00082945D00DD898
:104FB000002917D0012004293ED12A68D3683A4934
:104FC0000B40D360A86AFFF759F813E001200C29C1
:104FD00032D12A68D36835490B40D360286BFFF77C
:104FE0004DF807E00268D36831490B40D360406A4E
:104FF000FFF744F8002221002868FFF71DFE2B6808
:105000002C4A934222D02C4A93421FD02B4A9342DF
:105010001CD02B68196A2A4A114207D1196A294AF9
:10502000114203D11A6801218A431A60002C1AD157
:105030003E230122EA54002070BD0268D368224951
:105040000B40D360C06AFFF719F8D3E7196A1C4A0E
:105050001142DED1196A1B4A1142DAD15A6C1B493E
:105060000A405A64D5E7042C0AD0082C0DD00C2C29
:1050700010D0102C13D043230122EA540020DBE788
:105080003F230122EA540020D6E740230122EA54BC
:105090000020D1E741230122EA540020CCE742233B
:1050A0000122EA540020C7E7FFFBFFFFFFEFFFFFED
:1050B000FFFDFFFF002C014000440140004801407B
:1050C0001111000044040000FFF7FFFFFF7FFFFF06
:1050D00030B53C23C35C012B2DD03C230122C254AC
:1050E00001330132C254026853689468134DAA42D6
:1050F0001CD07025AB430D682B43536003680F4AE7
:10510000934206D08022D205934202D00C4A9342A9
:1051100004D1802294438A6814439C603D23012279
:10512000C254013B0022C254002030BD054D2B402B
:105130004D682B43DDE70220F7E7C046002C014015
:1051400000040040FFFF0FFFF0B5D6464F4646462D
:10515000C0B50B68002B58D000220124A14620E0E6
:10516000C3689846230063435F00BC469C44654681
:10517000EF430D695D43AA4646466546AE4335009A
:1051800056462E43C6604D68022D25D004684D68F2
:105190006B4327403B43036001320B681C00D44043
:1051A00033D04D4695401C002C402B42F4D04B6828
:1051B000013B012BD4D88368250065436F007F191C
:1051C000BB438E6875432B4383604368A343CD681C
:1051D00065432B434360C3E7FF2C0AD8046A1D00D4
:1051E0005D432E01761BB4434E6975432C43046224
:1051F000CCE7456A240A644364432601361BB54361
:105200004E6974432C434462C0E70020E0BCBA46B8
:10521000B146A846F0BD00000300104A904204D0F9
:105220000F4A012093420CD070470E4BD96A80225E
:1052300092030A43DA62DA6A0B490A40DA62002012
:10524000F2E7084BD96A8022D2030A43DA62DA6AAB
:1052500006490A40DA620020E6E7C04600540040F2
:105260000058004000100240FFFFDFFFFFFFBFFFBC
:1052700030B502680124A24302600268CB681B02B9
:105280008D682B43154D2A40134303604B6803611F
:105290000368234303608368114A13408360826874
:1052A0000B698C692343D20AD202134383600B69D2
:1052B000002B04D0826880231B02134383600368A1
:1052C000084A13400A68134303604368044A1340C2
:1052D0004A6913434360002030BDC046FFE0FFFF32
:1052E000FF7FFFFFFFFFCFFF014B18607047C046F5
:1052F0000400002010B5034B0A000100186800F0FC
:1053000052F810BD10000020014B18687047C046CD
:105310001000002070B500260C4D0D4C641BA4102D
:10532000A64209D1002600F071F90A4D0A4C641B0F
:10533000A410A64205D170BDB300EB5898470136C2
:10534000EEE7B300EB5898470136F2E74C570008F8
:105350004C5700084C5700085057000810B5034B35
:105360000100186800F0B8F810BDC0461000002019
:1053700010B5034B0100186800F042F810BDC0469C
:1053800010000020002310B59A4200D110BDCC5C63
:10539000C4540133F8E703008218934200D17047E8
:1053A00019700133F9E770B5130C0D0C1ED1002BE9
:1053B0000CD189B294B24C43210000F08DF8051E47
:1053C0001BD022000021FFF7E6FF16E01D1C0B1C7E
:1053D00092B289B29CB25143ABB263430C0C1C191C
:1053E000220C07D1240489B20C43E5E7002B01D13C
:1053F000131CEDE70C2300250360280070BD00009E
:1054000070B50500002910D00C1F2368002B00DAAE
:10541000E418280000F0E8F81D4A1368002B05D1B5
:1054200063601460280000F0E7F870BDA34208D95B
:10543000216860188342F3D118685B6841182160C5
:10544000EEE71A005B68002B01D0A342F9D911687E
:105450005018A0420BD120680918501811608342DF
:10546000E0D118685B68411811605360DAE7A04228
:1054700002D90C232B60D5E721686018834203D141
:1054800018685B684118216063605460CAE7C046D1
:10549000C009002070B50F4E0D00316804000029CE
:1054A00002D100F08FF830602900200000F08AF867
:1054B000431C0AD00323C51C9D43A84207D0291AC8
:1054C000200000F07FF8431C01D101256D42280027
:1054D00070BDC046C4090020F7B50322CB1C93431E
:1054E000083306001F000C2B32D20C27B94231D8EA
:1054F000300000F079F8324D2B681C00002C2ED1C2
:1055000039003000FFF7C6FF0400431C1ED12C6891
:105510002500002D4AD123682900E31830000193AB
:1055200000F050F8019B834243D123680337FF1AF0
:1055300003239F4308370C2F00D20C27390030007B
:10554000FFF7A8FF431C34D02368DF19276013E05E
:10555000002BCBDA0C23002533602800FEBD226827
:10556000D11B20D40B2917D9E2192760A34211D1EE
:105570002A606368116053603000250000F03CF839
:1055800007220B35231D9543EA1A9D42E5D05B1B8C
:10559000A350E2E75A60ECE76268A34201D12A60B7
:1055A000EAE75A60E8E723006468A7E72C006D6823
:1055B000AFE70C233000336000F01EF8CDE7C046A3
:1055C000C0090020002370B5064D040008002B60C0
:1055D000FEF7A6F8431C03D12B68002B00D02360F4
:1055E00070BDC046C809002010B5024800F00CF894
:1055F00010BDC046CC09002010B5024800F005F8E7
:1056000010BDC046CC09002070477047F8B5C046B1
:10561000F8BC08BC9E467047F8B5C046F8BC08BC4C
:105620009E4670470000000001B40248844601BC59
:08563000604700BF7500002077
:10563800241C0008B01B00080C1B0008C41A000832
:105648000C1B0008EC1B00080C1B0008C41A0008FF
:10565800B01B0008B01B0008EC1B0008C41A0008A7
:10566800CA1A0008CA1A0008CA1A0008FA1B000851
:10567800B01B0008B01B00080C1B0008C01A00086B
:105688000C1B0008EC1B00080C1B0008C01A0008C3
:10569800B01B0008B01B0008EC1B0008C01A00086B
:1056A800CA1A0008CA1A0008CA1A0008F61B000815
:1056B800241D0008F41C0008F41C0008F21C000853
:1056C800F81C0008F81C0008401E0008F21C00081E
:1056D800F81C0008401E0008F81C0008F21C00080E
:1056E800EC1D0008EC1D0008EC1D00087C1E0008DD
:1056F800184B0008204C0008204C0008204C0008DB
:10570800424B0008204C0008204C0008204C0008A0
:10571800704B0008204C0008204C0008204C000862
:105728009A4B0008204C0008204C0008204C000828
:10573800C84B0008204C0008204C0008204C0008EA
:04574800F24B000818
:04574C00E918000850
:04575000C118000874
:10575400010000000024F400010000000400000027
:105764001400002000000000000000000000000001
:105774000000000000000000000000000000000025
:105784000000000000000000000000000000000015
:105794000000000000000000000000000000000005
:1057A40000000000000000000000000000000000F5
:1057B40000000000000000000000000000000000E5
:1057C4000000000010B50A000D494C698023DB027B
:1057D40023434B61EFF3108C72B6511CFF3113005D
:1057E400821A1868D05004338B42FAD104498022BB
:1057F40052020B691342FCD18CF3108810BDC046D1
:04580400002002403E
:0400000508003C159E
:00000001FF
